{
  "_format": "hh-sol-artifact-1",
  "contractName": "CoinFlip",
  "sourceName": "contracts/CoinFlip.sol",
  "abi": [
    {
      "inputs": [],
      "stateMutability": "nonpayable",
      "type": "constructor"
    },
    {
      "anonymous": false,
      "inputs": [
        {
          "indexed": true,
          "internalType": "address",
          "name": "player",
          "type": "address"
        },
        {
          "indexed": false,
          "internalType": "bool",
          "name": "result",
          "type": "bool"
        }
      ],
      "name": "Flipped",
      "type": "event"
    },
    {
      "inputs": [],
      "name": "flipCoin",
      "outputs": [],
      "stateMutability": "nonpayable",
      "type": "function"
    },
    {
      "inputs": [],
      "name": "getLastFlip",
      "outputs": [
        {
          "internalType": "uint256",
          "name": "",
          "type": "uint256"
        }
      ],
      "stateMutability": "view",
      "type": "function"
    },
    {
      "inputs": [],
      "name": "getOwner",
      "outputs": [
        {
          "internalType": "address",
          "name": "",
          "type": "address"
        }
      ],
      "stateMutability": "view",
      "type": "function"
    },
    {
      "inputs": [],
      "name": "lastFlip",
      "outputs": [
        {
          "internalType": "uint256",
          "name": "",
          "type": "uint256"
        }
      ],
      "stateMutability": "view",
      "type": "function"
    },
    {
      "inputs": [],
      "name": "owner",
      "outputs": [
        {
          "internalType": "address",
          "name": "",
          "type": "address"
        }
      ],
      "stateMutability": "view",
      "type": "function"
    }
  ],
  "bytecode": "0x608060405234801561001057600080fd5b50336000806101000a81548173ffffffffffffffffffffffffffffffffffffffff021916908373ffffffffffffffffffffffffffffffffffffffff160217905550610302806100606000396000f3fe608060405234801561001057600080fd5b50600436106100575760003560e01c8063112e214b1461005c578063464983071461007a578063799ae22314610098578063893d20e8146100a25780638da5cb5b146100c0575b600080fd5b6100646100de565b6040516100719190610209565b60405180910390f35b6100826100e8565b60405161008f9190610209565b60405180910390f35b6100a06100ee565b005b6100aa610159565b6040516100b791906101d3565b60405180910390f35b6100c8610182565b6040516100d591906101d3565b60405180910390f35b6000600154905090565b60015481565b6000806002426100fe919061026c565b149050426001819055503373ffffffffffffffffffffffffffffffffffffffff167fe2cec45ed38b22dc2c86364302d8c581a43a10a7f5801f1755dd618dfcb5d98a8260405161014e91906101ee565b60405180910390a250565b60008060009054906101000a900473ffffffffffffffffffffffffffffffffffffffff16905090565b60008054906101000a900473ffffffffffffffffffffffffffffffffffffffff1681565b6101af81610224565b82525050565b6101be81610236565b82525050565b6101cd81610262565b82525050565b60006020820190506101e860008301846101a6565b92915050565b600060208201905061020360008301846101b5565b92915050565b600060208201905061021e60008301846101c4565b92915050565b600061022f82610242565b9050919050565b60008115159050919050565b600073ffffffffffffffffffffffffffffffffffffffff82169050919050565b6000819050919050565b600061027782610262565b915061028283610262565b9250826102925761029161029d565b5b828206905092915050565b7f4e487b7100000000000000000000000000000000000000000000000000000000600052601260045260246000fdfea26469706673582212205e9cdbf1997b8b528d86611f3b09c54c40c27a91730e894c464e4317eb374a1464736f6c63430008040033",
  "linkReferences": {},
  "deployedLinkReferences": {}
}